00001JOAO SILVA                    1234567890100015000000A
00002MARIA SOUZA                   2345678901200008755000A
00003CARLOS LIMA                   3456789012300000500000A
00004ANA PEREIRA                   4567890123400025000000A
00005PAULO SANTOS                  5678901234500000000000A
00006FERNANDA COSTA                6789012345600003200000A
00007RICARDO ALMEIDA               7890123456700012000000A
00008JULIANA ROCHA                 8901234567800006500000A
00009MARCOS OLIVEIRA               9012345678900000750000A
00010PATRICIA GOMES                0123456789000018000000A
00011LUCAS MARTINS                 1122334455600004000000A
00012CAMILA RIBEIRO                2233445566700009900000A
00013ROBERTO BARBOSA               3344556677800000300000A
00014BEATRIZ MENDES                4455667788900014500000A
00015GUSTAVO NUNES                 5566778899000000250000A
00016HELENA DIAS                   6677889900100000700000I
00017RAFAEL FREITAS                7788990011200011000000I
00018LARISSA CAMPOS                8899001122300005500000I
00019EDUARDO MOREIRA               9900112233400020000000B
00020TATIANE AZEVEDO               0011223344500003300000B
